:020000040000fa
:080000000001040000000000f3
:020000040000fa
:100008009a0100009a0100009a0100009a0100007c
:100018009a0100009a0100009a0100009a0100006c
:100028003e0600009a0100009a0100009a010000b3
:100038009a0100009a0100009a0100009a0100004c
:100048009a0100009a0100009a010000360600009b
:100058009a0100009a0100009a0100009a0100002c
:10006800460600009a0100009a0100009a0100006b
:100078009a0100009a0100009a0100004e06000053
:100088009a0100009a0100009a010000560600003b
:100098009a0100009a0100009a0100009a010000ec
:1000a8009a0100009a0100009a0100009a010000dc
:1000b8009a0100009a0100009a0100009a010000cc
:1000c8009a0100009a0100009a0100009a010000bc
:1000d8009a0100009a0100009a0100009a010000ac
:1000e8009a0100009a0100009a0100009a0100009c
:0800f8009a0100009a010000ca
:020000040000fa
:100108009a0100009a0100009a0100009a0100007b
:100118009a0100009a0100009a0100009a0100006b
:100128003e0600009a0100009a0100009a010000b2
:100138009a0100009a0100009a0100009a0100004b
:100148009a0100009a0100009a010000360600009a
:100158009a0100009a0100009a0100009a0100002b
:10016800460600009a0100009a0100009a0100006a
:100178009a0100009a0100009a0100004e06000052
:100188009a0100009a0100009a010000560600003a
:100198009a0100009a0100009a0100009a010000eb
:1001a8009a0100009a0100009a0100009a010000db
:1001b8009a0100009a0100009a0100009a010000cb
:1001c8009a0100009a0100009a0100009a010000bb
:1001d8009a0100009a0100009a0100009a010000ab
:1001e8009a0100009a0100009a0100009a0100009b
:0801f8009a0100009a010000c9
:020000040000fa
:10020000ef8120000eff20000e018800000000009a
:10021000000020000000e000020032000001200089
:10022000200288000c000700a069200001002000c7
:1002300011000700000020000000e0000200320072
:10024000000002000000000098050200000000000d
:100250000040da000000fe004440a9000000200039
:100260000000e0000300320000002000a001880030
:100270004440a8000000060091018800800078003a
:100280000000eb0015003700e280400032a0b4000f
:100290009101ba00e280400032a0b4009102ba009d
:1002a000e280400032a0b4000002eb00472bde00e9
:1002b000f507b200602ce10004003a000059eb00a1
:1002c0008301e900fdff3e00040037006128e100e2
:1002d000010032000082eb00040007001101ba00a7
:1002e0000200e000e8ff3a00000006003159ba00c1
:1002f0008301e9000c0032002159ba008301e900b2
:10030000080032000400e00003003a00e2804000f0
:1003100032a0b400f5ff370011d9ba008301e9001b
:10032000faff3a008100e800e180400032a0b4000a
:10033000000006000040da000000fe000001be00e0
:100340001b0007000470a70003f0a10003f8a3003e
:1003500013003a006509b1001000320009003500b1
:100360006928e100020035000100280000000500b6
:1003700000004000818048008502e900fcff3a004f
:1003800000000600f88f4200050035008100d10012
:100390000080d3008502e800fcff3a000000060060
:1003a0008000eb00000005006011b8004900370034
:1003b000c70ade00f107b200f50fb20008003200f4
:1003c000e1cf4200020032000170a00024000500cd
:1003d000810f700001003200040805004400050090
:1003e000810f700002003a00140005008502e90048
:1003f0000000400081c04800fcff3b000170a000ed
:1004000024000500889fbe008a9fbe008c1f7800d4
:10041000850007008c00330003866c006450e10007
:10042000240032006420e100270032006150e10026
:10043000220032006120e100210032008b85420061
:10044000eb07b1000134b800003ab80008044200dc
:1004500089844a00013ab8000030b8008880400022
:1004600009014a0004003300000040008180480078
:10047000020149008b05e900c909dd008301700014
:100480000100320013002000c814de004814dd0013
:100490004709de001200b200c808de0008847000c0
:1004a0003b00070001f0a1000cf0a70001f0a00044
:1004b0006e0037006120e100700032000801be00cc
:1004c0000200be00f7ff37006150e100fcff3a0078
:1004d0006a003700889fbe008a9fbe0000827000bd
:1004e0000402710004827100260032000004be0084
:1004f0000200be006011b8006b09200095022000c8
:100500000182cf000a0039000541b1000082cf000e
:10051000070039000541b1000982cf00040039000d
:100520000541b1000882cf00010039000541b1004a
:1005300005425200120032000a003b008281710025
:10054000610164008100d1000080d3008984d30060
:100550000884d3008b05e8000442e800f7ff3a0066
:10056000070037000804440089844c00000048005c
:10057000818048008b05e9000442e900f9ff3a0058
:10058000030007004f05be004f04be000000060038
:1005900081002000618055000b003d000b00200011
:1005a00061fe2f000100e1001d0034008281710016
:1005b000610164008904d1000884d3000000e800d0
:1005c000faff3a007100200061006400030070002f
:1005d000020060000900320061044400e0844c0025
:1005e0000988a500050032008b05e8006808e100d5
:1005f00002003a008904d1000884d300f20f2000e1
:100600000258e10005003d00c75ddd00f907b200ba
:100610008980750008007800000006000bf82700ac
:100620008b007800000005000004be0060ff07009a
:100630000003be000405be000200be005cff070010
:10064000844f7500000006000200be006450e10007
:10065000050036006420e100020036000968a300ae
:1006600001003a000800be000160a0004f067800bb
:100670004f05be004f04be0000000600f0ff2f0033
:08068000f1ff2700f9ff37002c
:020000040000fa
:100688000000fa00841c80000480a1000490a100ee
:1006980004a0a000841c880091e3a80091a3a900ed
:1006a8009163a900941c80000460a1000470a1005b
:1006b800941c8800951c800004fc2f0004826200b2
:1006c8000430a000941c880094e3a800a41c8000b7
:1006d8000400a0000410a1000420a100a41c8800ac
:1006e800a41c80000430a1000440a0000450a00015
:1006f800a41c8800a41c80000480a0000490a10011
:1007080004a0a000a41c880094c3a8000002eb0069
:10071800b41c88008760a900f40f2000c41c88005e
:100728008f60a8008e43a900d4ff21008419880097
:1007380084aa200004188800741b80000400a1000b
:100748000410a000741b8800840a2500041b88007c
:10075800241b80000430a1000440a1000450a10023
:100768000460a000241b8800048020001402780084
:10077800341b88000480200014029000441b880069
:100788000480200024029000541b8800048020006c
:1007980034029000641b8800841c80000480a1003f
:1007a8000490a10004a0a100841c8800000000009f
:1007b800851c8000040e200004826200e00f5200b5
:1007c800fbff3a000080fa00000006000000fa0073
:1007d80045158000b4032000050272004415880006
:1007e80035168000040320000502720034168800c4
:1007f800140980000480a1000490a10004a0a100b5
:100808001409880023e1a90023a1a90022e1a90075
:1008180022c1a9002241a8002221a9002501a8007f
:1008280024e1a800240980000440a1000450a0008d
:100838000460a1002409880004ee2200340988001d
:10084800140980000480a0000490a00004a0a00067
:10085800140988000080fa00000006000000fa0071
:10086800d902a80081e0a8008c00a9008e00a90088
:100878008ee0a90083e0a9008200a8008220a800d9
:100888008240a800a40480000400a0000410a10075
:100898000420a000a4048800e40480000400a00050
:1008a8000410a1000420a000e4048800f4048000df
:1008b80004c0a00004d0a10004e0a000f404880053
:1008c8008400a9008600a90086e0a9008c00a80081
:1008d8008e00a8008ee0a8000080fa000000060044
:1008e8000000fa004515800084ff2f000482620092
:1008f80044158800a1e2a900a1a2a900a062a9004c
:10090800041580000480a1000490a100041588004b
:10091800041580000450a0000460a0000470a0002a
:1009280004158800a042a8001415800004d0a10076
:1009380004e0a10004f0a10014158800a222a90077
:10094800141580000480a1000490a10014158800eb
:10095800141580000420a1000430a1000440a10067
:100968000450a10014158800a4e2a90025158000f0
:1009780004fc2f0004826200f401b30024158800ef
:100988002515800004f02100050272002415880056
:10099800341580000400a0000410a1000420a10068
:1009a8000430a10034158800a682a9008560a9003a
:1009b800c404800004c0a00004d0a10004e0a0008a
:1009c800c40488008d60a800a1e2a8000080fa0095
:1009d800000006000000fa00c1e1a900040e800032
:1009e8000420a1000430a100040e8800040e800039
:1009f8000440a1000450a1000460a1000470a100fb
:100a0800040e8800040e80000400a1000410a10058
:100a1800040e8800c901a800c921a800c801a800bf
:100a2800c821a8000002eb00140e8800240720004b
:100a3800240e8800c1e1a8000080fa00000006002a
:100a48000000fa000de2a9000da2a9000d42a800bd
:100a58000ce2a800641080000410a1000420a1008a
:100a6800641088000c02a8000fe2a9000f62a90018
:100a7800741080000460a1000470a1007410880044
:100a88000ea2a900b4002000a41088008540a90087
:100a98008520a900c40480000480a0000490a1005f
:100aa80004a0a000c4048800c40480000440a0007e
:100ab8000450a1000460a000c40488008d40a80070
:100ac8008d20a8000cc2a9000de2a8000f42a800c2
:100ad8000080fa00000006000600fa0020079800cf
:100ae8002e029000040f78000a00370094102000ae
:100af80014079800030037001e0290000402e90062
:100b0800140798001e029000e00f5200faff3a0006
:100b18001e0fe9001e027800e00f5200f3ff3a00b2
:100b28000080fa00000006001600fa000200090022
:100b3800001feb006e00b1006602470007000900c5
:100b4800001aeb00cefe070020ff0700a1ff0700f8
:100b580063ff07008480200014029000e00f520019
:100b68002b0032008480200024029000e10f520004
:100b780014003a008480200014029000040242000d
:100b8800050020000400be0005fe07000002be00ac
:100b9800e25f260073f123000400be0017fe070081
:100ba8000002be000400be00e2fd07000002be0015
:100bb80004027800c40e88000002eb00b40e88001e
:100bc80013003700848020001402900004024200c1
:100bd800050020000400be00f1fd07000002be0071
:100be800e25f260073f123000400be0003fe070045
:100bf8000002be000400be00cefd07000002be00d9
:100c080004027800b40e88000002eb00c40e8800cd
:100c18008480200034029000e10f52000e003a0058
:100c280024002000641b880034098000341b8800dd
:100c3800441c8000441b8800541c8000541b8800fe
:100c48006e63a80000000000741b80006802620048
:100c5800e00f5200fcff3a00a00020009eff0700b2
:100c6800bcff37000000fa008560a9000080fa0088
:100c7800004006000000fa008400a9000080fa0085
:100c8800004006000000fa008600a9000080fa0073
:100c9800004006000000fa0086e0a9000080fa0083
:100ca80000400600849fbe000000fa008760a9008b
:100cb800b41c800084408800b41c80006402620078
:100cc800e00f5200040032009643a90094408000cf
:100cd8000402e80094408800b41c800061026200ad
:100ce800e00f52000e0032009603a900351c800068
:100cf80084802000050a7800451c8000848020003c
:100d080015029800551c8000848020002502980058
:100d1800651c800084802000350298008ee3a900bd
:0c0d28000080fa004f02be0000400600f0
:020000040000fa
:100d3400000800001000000002000000aaaaaa0097
:100d4400aaaaaa00aaaa000000000000000001004c
:100d540000000000100800000e0000000000000069
:040d6400000000008b
:020000040000fa
:0200000401f009
:04000000fabd000045
:020000040000fa
:0200000401f009
:04000400ff7f00007a
:020000040000fa
:0200000401f009
:04000800ffff0000f6
:020000040000fa
:0200000401f009
:04001400ffff0000ea
:020000040000fa
:0200000401f009
:04001800ffff0000e6
:00000001FF
