:020000040000fa
:080000000001040000000000f3
:020000040000fa
:10000800a2010000a2010000a2010000a20100005c
:10001800a2010000a2010000a2010000a20100004c
:100028004a050000a2010000a2010000a201000090
:10003800a2010000a2010000a2010000a20100002c
:10004800a2010000ae050000a6050000360500006c
:10005800a2010000a2010000a2010000a20100000c
:1000680052050000a2010000a2010000a201000048
:10007800a2010000a2010000a20100005a05000030
:10008800a2010000a2010000a20100006205000018
:10009800a2010000a2010000a2010000a2010000cc
:1000a800a2010000a2010000a2010000a2010000bc
:1000b800a2010000a2010000a2010000a2010000ac
:1000c800a2010000a2010000a2010000a20100009c
:1000d800a2010000a2010000a2010000a20100008c
:1000e800a2010000a2010000a2010000a20100007c
:0800f800a2010000a2010000ba
:020000040000fa
:10010800a2010000a2010000a2010000a20100005b
:10011800a2010000a2010000a2010000a20100004b
:100128004a050000a2010000a2010000a20100008f
:10013800a2010000a2010000a2010000a20100002b
:10014800a2010000ae050000a6050000360500006b
:10015800a2010000a2010000a2010000a20100000b
:1001680052050000a2010000a2010000a201000047
:10017800a2010000a2010000a20100005a0500002f
:10018800a2010000a2010000a20100006205000017
:10019800a2010000a2010000a2010000a2010000cb
:1001a800a2010000a2010000a2010000a2010000bb
:1001b800a2010000a2010000a2010000a2010000ab
:1001c800a2010000a2010000a2010000a20100009b
:1001d800a2010000a2010000a2010000a20100008b
:1001e800a2010000a2010000a2010000a20100007b
:0801f800a2010000a2010000b9
:020000040000fa
:10020000af8120000eff20000e01880000000000da
:10021000000020000000e000020032000001200089
:10022000200288000c000700e05b20000100200095
:1002300011000700000020000000e0000200320072
:100240000000020000000000f604020000000000b0
:100250000040da000000fe004440a9000000200039
:100260000000e0000300320000002000a001880030
:100270004440a8000000060091018800800078003a
:100280000000eb0015003700e280400032a0b4000f
:100290009101ba00e280400032a0b4009102ba009d
:1002a000e280400032a0b4000002eb00472bde00e9
:1002b000f507b200602ce10004003a000059eb00a1
:1002c0008301e900fdff3e00040037006128e100e2
:1002d000010032000082eb00040007001101ba00a7
:1002e0000200e000e8ff3a00000006003159ba00c1
:1002f0008301e9000c0032002159ba008301e900b2
:10030000080032000400e00003003a00e2804000f0
:1003100032a0b400f5ff370011d9ba008301e9001b
:10032000faff3a008100e800e180400032a0b4000a
:1003300000000600000000000000000000000000b7
:0c034000000000000040da000000fe0099
:020000040000fa
:10034c000000fa00841c80000480a1000490a1002d
:10035c0004a0a000841c880091e3a80091a3a9002c
:10036c009163a900941c80000460a1000470a1009a
:10037c00941c8800951c800004fc2f0004826200f1
:10038c000430a000941c880094e3a800a41c8000f6
:10039c000400a0000410a1000420a100a41c8800eb
:1003ac00a41c80000430a1000440a0000450a00054
:1003bc00a41c8800a41c80000480a0000490a10050
:1003cc0004a0a000a41c880094c3a8000002eb00a9
:1003dc00b41c88008760a900f40f2000c41c88009e
:1003ec008f60a8008e43a900d4ff210084198800d7
:1003fc0084aa200004188800741b80000400a1004b
:10040c000410a000741b8800840a2500041b8800bb
:10041c00241b80000430a1000440a1000450a10062
:10042c000460a000241b88000480200014027800c3
:10043c00341b88000480200014029000441b8800a8
:10044c000480200024029000541b880004802000ab
:10045c0034029000641b8800841c80000480a1007e
:10046c000490a10004a0a100841c880000000000de
:10047c00851c8000040e200004826200e00f5200f4
:10048c00fbff3a000080fa00000006000000fa00b2
:10049c0045158000b4032000050272004415880045
:1004ac003516800004032000050272003416880003
:1004bc00140980000480a1000490a10004a0a100f4
:1004cc001409880023e1a90023a1a90022e1a900b5
:1004dc0022c1a9002241a8002221a9002501a800bf
:1004ec0024e1a800240980000440a1000450a000cd
:1004fc000460a1002409880004ee2200340988005d
:10050c00140980000480a0000490a00004a0a000a6
:10051c00140988000080fa00000006000000fa00b0
:10052c00d902a80081e0a8008c00a9008e00a900c7
:10053c008ee0a90083e0a9008200a8008220a80018
:10054c008240a800a40480000400a0000410a100b4
:10055c000420a000a4048800e40480000400a0008f
:10056c000410a1000420a000e4048800f40480001e
:10057c0004c0a00004d0a10004e0a000f404880092
:10058c008400a9008600a90086e0a9008c00a800c0
:10059c008e00a8008ee0a8000080fa000000060083
:1005ac000000fa0045158000f4fc2f000482620064
:1005bc0044158800c682a800c6a2a800a1e2a90022
:1005cc00a1a2a900a062a800041580000480a100cb
:1005dc000490a10004158800041580000450a000ac
:1005ec000460a0000470a00004158800a042a800bc
:1005fc001415800004d0a10004e0a10004f0a100b7
:10060c0014158800a222a900141580000480a100f2
:10061c000490a00014158800141580000420a1007b
:10062c000430a1000440a1000450a100141588005e
:10063c00a4e2a9002515800004fc2f0004826200ae
:10064c00f401b300241588002515800004f0210066
:10065c000502720024158800aa42a900a6a2a800cf
:10066c00a682a9008560a900c404800004c0a00073
:10067c0004d0a10004e0a000c40488008d60a80090
:10068c00a1e2a8000080fa00000006000000fa00b9
:10069c000de2a9000da2a9000d42a8000ce2a800d1
:1006ac00641080000410a1000420a10064108800d4
:1006bc000c02a8000fe2a9000f62a90074108000c0
:1006cc000460a1000470a100741088000ea2a9009f
:1006dc00b4002000a41088008540a9008520a90042
:1006ec00c40480000480a0000490a10004a0a00019
:1006fc00c4048800c40480000440a0000450a1007d
:10070c000460a000c40488008d40a8008d20a800bf
:10071c000cc2a9000de2a8000f42a8000080fa004c
:10072c00000006000000fa00f400200044158800c8
:10073c000002eb00c41688000002eb00341688009f
:10074c000002eb00e41688000002eb00541688004f
:10075c00e44c20004006200004000100443f20002f
:10076c008002200004000100e44c2000a0002000c6
:10077c0004000100443f2000600020000400010040
:10078c00e44c2000a000200004000100443f2000a5
:10079c00f000200004000100e44c2000a000200028
:1007ac0004000100443f2000100020000400010060
:1007bc00e44c2000a000200004000100443f200075
:1007cc002000200004000100e44c2000a0002000c8
:1007dc00040001000080fa00000006000200fa008c
:1007ec00004f7800dc02a900dc22a9009e427800b0
:1007fc000582fb004422de00044278000482fb00e8
:10080c006f02620054168800dc42a800e44c200001
:10081c001000200004000100dc42a900e44c200080
:10082c0010002000040001009e4278000582fb00ad
:10083c006f02620054168800dc42a800e44c2000d1
:10084c001000200004000100dc42a900e44c200050
:10085c0010002000040001000080fa0000000600d7
:10086c000200fa00004f7800dc02a800dc22a9008c
:10087c009e4278000582fb004422de000442780090
:10088c000482fb006f02620054168800dc42a80050
:10089c00e44c20001000200004000100dc42a90000
:1008ac00e44c200010002000040001009e4278005f
:1008bc000582fb006f02620054168800dc42a8001f
:1008cc00e44c20001000200004000100dc42a900d0
:1008dc00e44c200010002000040001000080fa000d
:1008ec00000006000000fa00f40020003416880016
:1008fc00dc02a900dc22a800dc42a800441680001f
:10090c0094408800dc42a900e44c20001000200038
:10091c0004000100944080004422dd0094408800d3
:10092c00dc42a80044168000e00f520002003200a6
:10093c0014002000010037000002eb008402780054
:10094c00944080000502720094408800dc42a900ab
:10095c0008003700dc02a900dc22a8004416800045
:10096c0094408800954080000408200004826200b6
:10097c009440880094408000e00f5200f5ff3a004c
:10098c000002eb00341688000080fa00000006001c
:10099c000600fa00200798002e029000040f780041
:1009ac000a00370094102000140798000300370049
:1009bc001e0290000402e900140798001e02900029
:1009cc00e00f5200faff3a001e0fe9001e027800f9
:1009dc00e00f5200f3ff3a000080fa00000006001e
:1009ec001600fa0002000900001feb006e00b100b7
:1009fc006602470007000900001aeb0049ff0700d8
:100a0c004ffe0700a1fe070020ff07008480200096
:100a1c0034029000e30f52000e003a001400200044
:100a2c00641b880034098000341b8800441c80003f
:100a3c00441b8800541c8000541b88006e63a80063
:100a4c0000000000741b800068026200e00f52007e
:100a5c00fcff3a00a0002000cdff0700ebff3700a1
:100a6c00841f78000000fa008560a900241480001f
:100a7c00b440880034148000c44088000080fa0020
:100a8c004f027800004006000000fa008400a90024
:100a9c000080fa00004006000000fa008600a90061
:100aac000080fa00004006000000fa0086e0a90071
:100abc000080fa0000400600849fbe000000fa008f
:100acc008760a900b41c800084408800b41c80009e
:100adc0064026200e00f5200040032009643a90049
:100aec00944080000402e80094408800b41c80000c
:100afc0061026200e00f52000e0032009603a90062
:100b0c00351c800084802000050a7800451c80007c
:100b1c008480200015029800551c800084802000e1
:100b2c0025029800651c8000848020003502980006
:100b3c008ee3a9000080fa004f02be0000400600c0
:100b4c000000fa008540a9000080fa000040060071
:100b5c00841f78000000fa008520a9009410800002
:100b6c00944088000080fa004f0278000040060094
:020000040000fa
:100b7c00000800001000000002000000aaaaaa0051
:100b8c00aaaaaa00aaaa0000000000000000010006
:100b9c0000000000100800000a0000000000000027
:040bac000000000045
:020000040000fa
:0200000401f009
:04000000fabd000045
:020000040000fa
:0200000401f009
:04000400ff7f00007a
:020000040000fa
:0200000401f009
:04000800ffff0000f6
:020000040000fa
:0200000401f009
:04001400ffff0000ea
:020000040000fa
:0200000401f009
:04001800ffff0000e6
:00000001FF
