:020000040000fa
:080000000001040000000000f3
:020000040000fa
:100008009a0100009a0100009a0100009a0100007c
:100018009a0100009a0100009a0100009a0100006c
:10002800d20100009a0100009a0100009a01000024
:100038009a0100009a0100009a0100009a0100004c
:100048009a0100009a0100009a0100009a0100003c
:100058009a0100009a0100009a0100009a0100002c
:100068009a0100009a0100009a0100009a0100001c
:100078009a0100009a0100009a0100009a0100000c
:100088009a0100009a0100009a010000da010000bc
:100098009a0100009a0100009a0100009a010000ec
:1000a8009a0100009a0100009a0100009a010000dc
:1000b8009a0100009a0100009a0100009a010000cc
:1000c8009a0100009a0100009a0100009a010000bc
:1000d8009a0100009a0100009a0100009a010000ac
:1000e8009a0100009a0100009a0100009a0100009c
:0800f8009a0100009a010000ca
:020000040000fa
:100108009a0100009a0100009a0100009a0100007b
:100118009a0100009a0100009a0100009a0100006b
:10012800d20100009a0100009a0100009a01000023
:100138009a0100009a0100009a0100009a0100004b
:100148009a0100009a0100009a0100009a0100003b
:100158009a0100009a0100009a0100009a0100002b
:100168009a0100009a0100009a0100009a0100001b
:100178009a0100009a0100009a0100009a0100000b
:100188009a0100009a0100009a010000da010000bb
:100198009a0100009a0100009a0100009a010000eb
:1001a8009a0100009a0100009a0100009a010000db
:1001b8009a0100009a0100009a0100009a010000cb
:1001c8009a0100009a0100009a0100009a010000bb
:1001d8009a0100009a0100009a0100009a010000ab
:1001e8009a0100009a0100009a0100009a0100009b
:0801f8009a0100009a010000c9
:020000040000fa
:100200002f8120000eff20000e018800000000005a
:10021000000020000000e000020032000001200089
:10022000200288000c000700603a20000100200036
:1002300011000700000020000000e0000200320072
:1002400000000200000000009e010200000000000b
:100250000040da000000fe004440a9000000200039
:100260000000e0000300320000002000a001880030
:100270004440a8000000060091018800800078003a
:100280000000eb0015003700e280400032a0b4000f
:100290009101ba00e280400032a0b4009102ba009d
:1002a000e280400032a0b4000002eb00472bde00e9
:1002b000f507b200602ce10004003a000059eb00a1
:1002c0008301e900fdff3e00040037006128e100e2
:1002d000010032000082eb00040007001101ba00a7
:1002e0000200e000e8ff3a00000006003159ba00c1
:1002f0008301e9000c0032002159ba008301e900b2
:10030000080032000400e00003003a00e2804000f0
:1003100032a0b400f5ff370011d9ba008301e9001b
:10032000faff3a008100e800e180400032a0b4000a
:0c033000000006000040da000000fe00a3
:020000040000fa
:10033c002000fa0007000900001feb000e01b100bd
:10034c007002470007000900001aeb003500070097
:10035c0085000700d7000700803e2000e40007005e
:10036c00e41680004322de00614262000404a20015
:10037c00614262000482fb00610262004322dd00e4
:10038c00e616800075ff2f008502630005027200df
:10039c00e4168800f0ff37000000fa008400a90082
:1003ac000080fa0000400600849fbe000000fa00a6
:1003bc008760a900dc62a800b41c8000444088005f
:1003cc00b41c800064026200e00f52000100320095
:1003dc009643a900b41c800061026200e00f520039
:1003ec000d0032009603a900351c8000048020000b
:1003fc00050a7800451c8000048020001502980036
:10040c00551c80000480200025029800651c80008b
:10041c0004802000350298000080fa004f02be00d4
:10042c00004006000000fa00f40f2000441588007c
:10043c000002eb00c41688000002eb0034168800a2
:10044c000002eb00e41688000002eb005416880052
:10045c0040062000a600070080c2b300140007006d
:10046c00a0002000a200070060c0b300100007002d
:10047c00a00020009e000700f0c0b3000c00070095
:10048c00a00020009a00070010c0b300080007006d
:10049c00a00020009600070020c0b3000400070055
:1004ac00a0002000920007000080fa000000060067
:1004bc000200fa00004f7800dc02a900dc22a9003f
:1004cc009e4278000582fb004422de000442780044
:1004dc000482fb006f02620054168800dc42a80004
:1004ec00dc42a9009e4278000582fb006f0262008c
:1004fc0054168800dc42a800dc42a9001000200041
:10050c007b0007000080fa00000006000200fa00e1
:10051c00004f7800dc02a800dc22a9009e42780083
:10052c000582fb004422de00044278000482fb00ba
:10053c006f02620054168800dc42a800dc42a9005d
:10054c009e4278000582fb006f0262005416880000
:10055c00dc42a800dc42a900100020006400070067
:10056c000080fa00000006000000fa00841c8000e5
:10057c000480a1000490a10004a0a000841c8800a9
:10058c0091e3a80091a3a9009163a900941c800099
:10059c000460a1000470a100941c8800951c8000cc
:1005ac0004fc2f00048262004401b300941c8800f8
:1005bc0094e3a800a41c80000400a0000410a10077
:1005cc000420a100a41c8800a41c80000430a100fd
:1005dc000440a0000450a000a41c8800a41c8000af
:1005ec000480a0000490a10004a0a000a41c88001a
:1005fc0094c3a8000002eb00b41c88008760a9001b
:10060c0054002000c41c88008f60a8008e43a900f1
:10061c00d4ff21008419880084aa200004188800c3
:10062c00741b80000400a1000410a000741b88003f
:10063c00840a2500041b8800241b80000430a100c0
:10064c000440a1000450a1000460a000241b8800f9
:10065c00a480200014027800341b8800a4802000a1
:10066c0014029000441b8800a480200024029000f7
:10067c00541b8800a480200034029000641b880066
:10068c00841c80000480a1000490a10004a0a1009f
:10069c00841c880000000000851c8000040e2000d3
:1006ac0004826200e00f5200fbff3a000080fa0067
:1006bc00000006000000fa00d902a80081e0a900a1
:1006cc008c00a90083e0a9008200a800a40480008b
:1006dc000400a0000410a1000420a000a4048800c1
:1006ec008400a9008c00a8000080fa00000006001d
:1006fc000600fa00200798002e029000040f7800e4
:10070c000a003700a42c20001407980003003700bf
:10071c001e0290000402e900140798001e029000cb
:10072c00e00f5200faff3a001e0fe9001e0278009b
:10073c00e00f5200f3ff3a000080fa0000000600c0
:020000040000fa
:10074c000a0800000800000002000000aaaaaa0083
:10075c00aaaaaa00aaaa0000000800000a00000029
:08076c00000000000000000085
:020000040000fa
:0200000401f009
:04000000f2bf00004b
:020000040000fa
:0200000401f009
:04000400ffff0000fa
:020000040000fa
:0200000401f009
:04000800ffff0000f6
:020000040000fa
:0200000401f009
:04001400ffff0000ea
:020000040000fa
:0200000401f009
:04001800ffff0000e6
:00000001FF
