:020000040000fa
:080000000001040000000000f3
:020000040000fa
:100008009a0100009a0100009a0100009a0100007c
:100018009a0100009a0100009a0100009a0100006c
:10002800500200009a0100009a0100009a010000a5
:100038009a0100009a0100009a0100009a0100004c
:100048009a0100009a0100009a0100003c02000099
:100058009a0100009a0100009a0100009a0100002c
:10006800580200009a0100009a0100009a0100005d
:100078009a0100009a0100009a0100006002000045
:100088009a0100009a0100009a010000680200002d
:100098009a0100009a0100009a0100009a010000ec
:1000a8009a0100009a0100009a0100009a010000dc
:1000b8009a0100009a0100009a0100009a010000cc
:1000c8009a0100009a0100009a0100009a010000bc
:1000d8009a0100009a0100009a0100009a010000ac
:1000e8009a0100009a0100009a0100009a0100009c
:0800f8009a0100009a010000ca
:020000040000fa
:100108009a0100009a0100009a0100009a0100007b
:100118009a0100009a0100009a0100009a0100006b
:10012800500200009a0100009a0100009a010000a4
:100138009a0100009a0100009a0100009a0100004b
:100148009a0100009a0100009a0100003c02000098
:100158009a0100009a0100009a0100009a0100002b
:10016800580200009a0100009a0100009a0100005c
:100178009a0100009a0100009a0100006002000044
:100188009a0100009a0100009a010000680200002c
:100198009a0100009a0100009a0100009a010000eb
:1001a8009a0100009a0100009a0100009a010000db
:1001b8009a0100009a0100009a0100009a010000cb
:1001c8009a0100009a0100009a0100009a010000bb
:1001d8009a0100009a0100009a0100009a010000ab
:1001e8009a0100009a0100009a0100009a0100009b
:0801f8009a0100009a010000c9
:020000040000fa
:10020000af8120000eff20000e01880000000000da
:10021000000020000000e000020032000001200089
:10022000200288000c00070020512000010020005f
:1002300011000700000020000000e0000200320072
:100240000000020000000000c401020000000000e5
:100250000040da000000fe004440a90080012000b8
:100260000000e0000300320000002000a001880030
:100270004440a8000000060091018800800078003a
:100280000000eb0015003700e280400032a0b4000f
:100290009101ba00e280400032a0b4009102ba009d
:1002a000e280400032a0b4000002eb00472bde00e9
:1002b000f507b200602ce10004003a000059eb00a1
:1002c0008301e900fdff3e00040037006128e100e2
:1002d000010032000082eb00040007001101ba00a7
:1002e0000200e000e8ff3a00000006003159ba00c1
:1002f0008301e9000c0032002159ba008301e900b2
:10030000080032000400e00003003a00e2804000f0
:1003100032a0b400f5ff370011d9ba008301e9001b
:10032000faff3a008100e800e180400032a0b4000a
:10033000000006000040da000000fe000002780025
:1003400002003700315a78000201e900e00f510045
:08035000fcff3a00000006006a
:020000040000fa
:10035800484500004c4c00004f200000574f00005b
:10036800524c0000440000003039000038370000cb
:100378003635000034330000323100000000000040
:020000040000fa
:100388002200fa006202470007000900001aeb0089
:100398007202470007000900001aeb001b01070062
:1003a8000e82e800c2002000c11a2800040078006c
:1003b800e0ff070072024700b2002000811b2800fe
:1003c80004007800dbff070000c8b3003201070013
:1003d800630107000002eb00040f780007003700f4
:1003e8000e82e8001e0242001442780004407800a1
:1003f800420107005a0107001e0fe8000e82e800bc
:100408001e02420014427800e04f5200f4ff3a0006
:1004180000ccb30020010700510107000002eb00e7
:10042800040f780007003700720247001e024200de
:1004380014427800044078003001070048010700a2
:100448001e0fe800720247001e02420014427800a4
:10045800e04f5200f4ff3a00644080000402e800d4
:10046800644088004006200058010700ccff370090
:10047800841f78000000fa008560a9002414800019
:100488007440880034148000844088000080fa009a
:100498004f027800004006000000fa008400a9001e
:1004a8000080fa00004006000000fa008600a9005b
:1004b8000080fa00004006000000fa0086e0a9006b
:1004c8000080fa0000400600849fbe000000fa0089
:1004d8008760a900b41c800044408800b41c8000d8
:1004e80064026200e00f5200040032009643a90043
:1004f800544080000402e80054408800b41c800086
:1005080061026200e00f52000e0032009603a9005b
:10051800351c800004802000050a7800451c8000f6
:100528000480200015029800551c800004802000db
:1005380025029800651c8000048020003502980080
:100548008ee3a9000080fa004f02be0000400600ba
:100558000000fa00841c80000480a1000490a1001f
:1005680004a0a000841c880091e3a80091a3a9001e
:100578009163a900941c80000460a1000470a1008c
:10058800941c8800951c800004fc2f0004826200e3
:100598000430a000941c880094e3a800a41c8000e8
:1005a8000400a0000410a1000420a100a41c8800dd
:1005b800a41c80000430a1000440a0000450a00046
:1005c800a41c8800a41c80000480a0000490a10042
:1005d80004a0a000a41c880094c3a8000002eb009b
:1005e800b41c88008760a900f40f2000c41c880090
:1005f8008f60a8008e43a900d4ff210084198800c9
:1006080084aa200004188800741b80000400a1003c
:100618000410a000741b8800840a2500041b8800ad
:10062800241b80000430a1000440a1000450a10054
:100638000460a000241b8800248120001402780094
:10064800341b88002481200014029000441b880079
:100658002481200024029000541b8800248120005b
:1006680034029000641b8800841c80000480a10070
:100678000490a10004a0a100841c880000000000d0
:10068800851c8000040e200004826200e00f5200e6
:10069800fbff3a000080fa00000006000000fa00a4
:1006a800d902a80081e0a8008c00a9008e00a9004a
:1006b8008ee0a90083e0a9008200a8008220a8009b
:1006c8008240a800a40480000400a0000410a10037
:1006d8000420a000a4048800e40480000400a00012
:1006e8000410a1000420a000e4048800f4048000a1
:1006f80004c0a00004d0a10004e0a000f404880015
:100708008400a9008600a90086e0a9008c00a80042
:100718008e00a8008ee0a8000080fa000000060005
:100728000000fa0045158000f4fc2f0004826200e6
:1007380044158800c682a800c6a2a800a1e2a900a4
:10074800a1a2a900a062a800041580000480a1004d
:100758000490a10004158800041580000450a0002e
:100768000460a0000470a00004158800a042a8003e
:100778001415800004d0a10004e0a10004f0a10039
:1007880014158800a222a900141580000480a10075
:100798000490a00014158800141580000420a100fe
:1007a8000430a1000440a1000450a10014158800e1
:1007b800a4e2a9002515800004fc2f000482620031
:1007c800f401b300241588002515800004f02100e9
:1007d8000502720024158800aa42a900a6a2a80052
:1007e800a682a9008560a9008d60a800c4048000c5
:1007f80004c0a00004d0a10004e0a000c404880044
:10080800a1e2a8000080fa00000006000000fa003b
:10081800f4002000441588000002eb00c41688008c
:100828000002eb00341688000002eb00e416880092
:100838000002eb0054168800400620006300070001
:1008480080c2b30014000700a00020005f0007006a
:1008580060c0b30010000700a00020005b00070084
:10086800f0c0b3000c000700a000200057000700ec
:1008780010c0b30008000700a000200053000700c4
:1008880020c0b30004000700a00020004f000700ac
:100898000080fa00000006000200fa00004f78000d
:1008a800dc02a900dc22a9009e4278000582fb0038
:1008b8004422de00044278000482fb006f026200da
:1008c80054168800dc42a800dc42a9005000200031
:1008d8003e0007009e4278000582fb006f0262001e
:1008e80054168800dc42a800dc42a9005000200011
:1008f800360007000080fa00000006000200fa0037
:10090800004f7800dc02a800dc22a9009e42780093
:100918000582fb004422de00044278000482fb00ca
:100928006f02620054168800dc42a800dc42a9006d
:1009380050002000250007009e4278000582fb0039
:100948006f02620054168800dc42a800dc42a9004d
:10095800500020001d0007000080fa00000006007b
:100968000000fa001400200034168800dc02a900f8
:10097800dc22a800441680005440880055408000be
:1009880004082000048262005440880008003700f0
:10099800dc02a900dc22a80044168000544088002c
:1009a80055408000040820000482620054408800fa
:1009b80054408000e00f5200f5ff3a000002eb00bf
:1009c800341688000080fa00000006000600fa00cd
:1009d800200798002e029000040f78000a003700c4
:1009e8009410200014079800030037001e0290009e
:1009f8000402e900140798001e029000e00f52005c
:100a0800faff3a001e0fe9001e027800e00f5200bc
:0c0a1800f3ff3a000080fa000000060026
:020000040000fa
:100a2400120800000800000002000000aaaaaa00a0
:100a3400aaaaaa00aaaa0000000800001200000046
:080a44000000000000000000aa
:020000040000fa
:0200000401f009
:04000000fabd000045
:020000040000fa
:0200000401f009
:04000400ff7f00007a
:020000040000fa
:0200000401f009
:04000800ffff0000f6
:020000040000fa
:0200000401f009
:04001400ffff0000ea
:020000040000fa
:0200000401f009
:04001800ffff0000e6
:00000001FF
