:020000040000fa
:080000000001040000000000f3
:020000040000fa
:100008009a0100009a0100009a0100009a0100007c
:100018009a0100009a0100009a0100009a0100006c
:100028008c0700009a0100009a0100009a01000064
:100038009a0100009a0100009a0100009a0100004c
:100048009a010000d6060000ce060000de06000079
:100058009a0100009a0100009a0100009a0100002c
:100068009a0100009a0100009a0100009a0100001c
:100078009a0100009a0100009a0100009a0100000c
:100088009a0100009a0100009a01000094070000fc
:100098009a0100009a0100009a0100009a010000ec
:1000a8009a0100009a0100009a0100009a010000dc
:1000b8009a0100009a0100009a0100009a010000cc
:1000c8009a0100009a0100009a0100009a010000bc
:1000d8009a0100009a0100009a0100009a010000ac
:1000e8009a0100009a0100009a0100009a0100009c
:0800f8009a0100009a010000ca
:020000040000fa
:100108009a0100009a0100009a0100009a0100007b
:100118009a0100009a0100009a0100009a0100006b
:100128008c0700009a0100009a0100009a01000063
:100138009a0100009a0100009a0100009a0100004b
:100148009a010000d6060000ce060000de06000078
:100158009a0100009a0100009a0100009a0100002b
:100168009a0100009a0100009a0100009a0100001b
:100178009a0100009a0100009a0100009a0100000b
:100188009a0100009a0100009a01000094070000fb
:100198009a0100009a0100009a0100009a010000eb
:1001a8009a0100009a0100009a0100009a010000db
:1001b8009a0100009a0100009a0100009a010000cb
:1001c8009a0100009a0100009a0100009a010000bb
:1001d8009a0100009a0100009a0100009a010000ab
:1001e8009a0100009a0100009a0100009a0100009b
:0801f8009a0100009a010000c9
:020000040000fa
:10020000af8520000eff20000e01880000000000d6
:10021000000020000000e000020032000001200089
:10022000200288000c00070080c22000010020008e
:1002300011000700000020000000e0000200320072
:10024000000002000000000088050200000000001d
:100250000040da000000fe004440a9000000200039
:100260000000e0000300320000002000a001880030
:100270004440a8000000060091018800800078003a
:100280000000eb0015003700e280400032a0b4000f
:100290009101ba00e280400032a0b4009102ba009d
:1002a000e280400032a0b4000002eb00472bde00e9
:1002b000f507b200602ce10004003a000059eb00a1
:1002c0008301e900fdff3e00040037006128e100e2
:1002d000010032000082eb00040007001101ba00a7
:1002e0000200e000e8ff3a00000006003159ba00c1
:1002f0008301e9000c0032002159ba008301e900b2
:10030000080032000400e00003003a00e2804000f0
:1003100032a0b400f5ff370011d9ba008301e9001b
:10032000faff3a008100e800e180400032a0b4000a
:10033000000006000040da000000fe0003f0a2000a
:10034000889fbe008a9fbe008c1f7800f7000700c0
:10035000fe0033006450e1004f0032006420e100f1
:100360005200320003826c0007003b000905d000f8
:100370000306d000820f54000c065d000200390015
:10038000020032008901780003067800858255005a
:1003900004003d000003fd008103fd008502ea002a
:1003a0008b854200840f720002003b006000100049
:1003b000e08018006011b8000005eb007a28e10029
:1003c0000a00390006007800c75ddd00f707b200bb
:1003d000878075002d003700828171000a01780046
:1003e000610560008180d1000080d3008502e900b2
:1003f000f9ff3b00060440008784480002003b00f0
:1004000060041400e0841c000988a3000700320087
:100410008a81710082817100610164008904d100c8
:100420000884d3008b05e800170037000978a30083
:1004300013003a000b00e000130034008b05e900c4
:100440000804440089844c000a4474000978a3001d
:100450000d003a000b00e000070034008b05e900b6
:100460000804440089844c0001003a000b0020007d
:100470000978a300f7ff32000001eb00020037000b
:10048000828171000a0178006d0007000cf0a7005e
:1004900001f0a000b60037006420e10002003a003d
:1004a000838f6c00b60033000801be000200be005e
:1004b000af003700889fbe008a9fbe008c1f780067
:1004c0009a000700a100330003866c006450e1002d
:1004d0002e0032006420e100330032006150e10060
:1004e0002f0032006120e100310032008585550087
:1004f000eb07b000090020000804200005003700c9
:100500000804440089844c000a00310006034300bb
:1005100087834b000001530081815b00f8ff3300ab
:100520000203be000800a0000804440089844c00b7
:10053000f6ff3900c639dd00830173000100320087
:10054000130020008904d1000884d3000998a30077
:10055000050032000800a7000300a0008904d100b4
:100560000884d3008b05e8008904d1000884d300f7
:100570000001eb000281d2003100070001f0a10070
:100580000cf0a70001f0a000790037006420e10022
:100590007b0032000801be000200be00f7ff3700fa
:1005a0006120e100760032006000b800f3ff370000
:1005b0000000200001f82700f0ff370014002000a1
:1005c000a6003700f4ff2f00a40037000001be0092
:1005d000410007000470a70003f0a10003f8a30086
:1005e00013003a006509b10010003200090035001f
:1005f0006928e10002003500010028000000050024
:1006000000004000818048008502e900fcff3a00bc
:1006100000000600f88f4200050035008100d1007f
:100620000080d3008502e800fcff3a0000000600cd
:100630008000eb00000005006011b800a200370048
:1006400081002000618055000b003d000b00200060
:1006500061fe2f000100e1001d0034008281710065
:10066000610164008904d1000884d3000000e8001f
:10067000faff3a007100200061006400030070007e
:10068000020060000900320061044400e0844c0074
:100690000988a500050032008b05e8006808e10024
:1006a00002003a008904d1000884d300f20f200030
:1006b0000258e10005003d00c75ddd00f907b2000a
:1006c0008980750008007800000006000bf82700fc
:1006d0008b00780000000500c70ade00f107b200b9
:1006e000f50fb20008003200e1cf420002003200f4
:1006f0000170a00024000500810f7000010032008d
:100700000408050044000500810f700002003a0053
:10071000140005008502e9000000400081c0480087
:10072000fcff3b000170a000240005000004be0097
:10073000e9ff07000003be000405be000200be0082
:10074000e5ff0700844f7500000006000200be00b0
:100750006450e100050036006420e100020036002c
:100760000968a30001003a000800be000160a00073
:100770004f0678004f05be004f04be000000060083
:10078000f0ff2f00f1ff2700f9ff3700889fbe0020
:100790008a9fbe008c1f7800e4ff0700ebff330048
:1007a00003866c006450e100240032006420e10004
:1007b000270032006150e100220032006120e10098
:1007c000210032008b854200eb07b1000134b800f4
:1007d000003ab8000804420089844a00013ab8008f
:1007e0000030b8008880400009014a00040033004e
:1007f0000000400081804800020149008b05e900ab
:10080000c909dd00830170000100320013002000df
:10081000c814de004814dd004709de001200b200f3
:10082000c808de000884700085ff070001f0a10001
:100830000cf0a70001f0a000cdff37006120e1001f
:10084000cfff32000801be000200be00f7ff3700f4
:100850006150e100fcff3a00c9ff3700889fbe00ed
:100860008a9fbe00841f7800b0ff07004f00780009
:1008700011003300f0ff2f00838f6c0006003b0057
:10088000040565000a00a7000800370009f0a6006b
:100890001000200008003700820f5400838f5c0096
:1008a000030039001000200001003e00000020007d
:1008b00009f0a7000000ea004f05be004f04be008b
:1008c0000000e00000000600889fbe008a9fbe0076
:1008d0000082700004027100048271002600320060
:1008e0000004be000200be006011b8006b092000c9
:1008f000950220000182cf000a0039000541b100b5
:100900000082cf00070039000541b1000982cf0005
:10091000040039000541b1000882cf000100390010
:100920000541b10005425200120032000a003b00ae
:1009300082817100610164008100d1000080d300d8
:100940008984d3000884d3008b05e8000442e800c2
:10095000f7ff3a00070037000804440089844c0080
:1009600000004800818048008b05e9000442e9004e
:10097000f9ff3a0032ff07004f05be004f04be00ea
:04098000000006006d
:020000040000fa
:100984000000fa004515800084ff2f0004826200f5
:1009940044158800a1e2a900a1a2a900a062a900af
:1009a400041580000480a1000490a10004158800af
:1009b400041580000450a0000460a0000470a0008e
:1009c40004158800a042a8001415800004d0a100da
:1009d40004e0a10004f0a10014158800a222a900db
:1009e400141580000480a1000490a100141588004f
:1009f400141580000420a1000430a1000440a100cb
:100a04000450a10014158800a4e2a9002515800053
:100a140004fc2f0004826200f401b3002415880052
:100a24002515800004f021000502720024158800b9
:100a3400341580000400a0000410a1000420a100cb
:100a44000430a10034158800a682a9008560a9009d
:100a5400c404800004c0a00004d0a10004e0a000ed
:100a6400c40488008d60a800a1e2a8000080fa00f8
:100a7400000006000000fa000de2a9000da2a90082
:100a84000d42a8000ce2a800641080000410a1002c
:100a94000420a100641088000c02a9000fe2a90040
:100aa4000f62a900741080000460a1000470a1000a
:100ab400741088000ea2a900b4002000a4108800bd
:100ac4008540a9008520a900c40480000480a000fa
:100ad4000490a10004a0a000c4048800c404800001
:100ae4000440a0000450a1000460a000c4048800d5
:100af4008d40a8008d20a8000cc2a9000de2a8001a
:100b04000f42a8000080fa00000006004a00fa0024
:100b140070010700c701070099ff0700d301070010
:100b2400f2010700d862a900d882a9000082eb0074
:100b3400440988006022b80014079800250798002b
:100b44006022b80034079800450798000042eb0083
:100b5400244f98000e0278002404b000030009001a
:100b6400001aeb0001003700000000007440800010
:100b7400050020004600200007002000860f5200d8
:100b8400878f5a0078003e0004600100040037009b
:100b940028003700740037004b003700500037003e
:100ba400440020007440880004ee220034098800c8
:100bb400c1e1a8006c0047006022b800849fbe0019
:100bc4006022b800849fbe006022b800849fbe00eb
:100bd4006022b800849fbe00040020000512240097
:100be400849fbe00a10020006033b800d4cc2c0048
:100bf400c5dc23000200200003122400ea010700e0
:100c0400f4875700841c80000480a1000490a10094
:100c140004a0a100841c880000000000851c800042
:100c2400040e200004826200e00f5200fbff3a0031
:100c34004d00370034098000050020000400be0088
:100c44007cfe07000002be00c21e250083db2300d9
:100c54000400be00ccfe07000002be00340798006a
:100c64004507980004802000140278000500200045
:100c74000400be006ffe07000002be00c21e250075
:100c840083db23000400be00bffe07000002be0099
:100c940014079800250798006c0347003e02900053
:100ca400ce0290001e019000ae0190000600780074
:100cb4000802070000027800040f780034002000c6
:100cc40074408800280037006c0247000400780054
:100cd400ea01070044002000744088002200370025
:100ce4000480200034029000e20f520002003a0017
:100cf4001400200074408800048020003402900016
:100d0400e20f520017003a0014002000641b880010
:100d140034098000341b880084408000441b880010
:100d240084842000144278000482fb00541b880051
:100d34006e63a80000000000741b8000680262005b
:100d4400e00f5200fcff3a001e0278001402780003
:100d5400b40e88001e82e80014027800c40e8800d5
:100d6400010037000000000074408000e00f5200d2
:100d74007dff3200dc62a900dc82a8001e0278003c
:100d840014027800b40e88001e82e8001402780071
:100d9400c40e880075ff37000000fa008540a900e2
:100da4000080fa00004006000000fa008520a90037
:100db4000080fa00004006003600f800809fbe0064
:100dc400849fbe00861f78000200fa000002eb0038
:100dd400040f78008560a90034428000f80f5200a7
:100de400060036000002eb003442880014c0b30051
:100df40084407800c0842000014878003442800098
:100e0400f80f520002003a000002eb00040f7800d1
:100e140005148000740c2000848f520034003e00be
:100e24003442800005148000040342004481200001
:100e340004024300050a7800c484200014427800a8
:100e4400e04f52000f003a00344280008402420016
:100e540044812000048242009402780054428000bd
:100e6400048242005442880055428000344280008b
:100e74000402e800110009008482d800000278000e
:100e840084408800c484200014427800e14f52005a
:100e940017003a000002eb00544288000002eb0005
:100ea400040f7800090037001e0278008402420013
:100eb400448120000482420094027800544280005d
:100ec40004824200544288001e0fe8001e0278008b
:100ed400f80f5200f4ff36005542800094012000c0
:100ee400110009008482d800000278008440880040
:100ef400344280000402e800344288000080fa0092
:100f04004f0378004f02be004f00be003600f900c8
:100f1400004006000000fa008400a9000080fa00e6
:100f240000400600849fbe000000fa008760a9000c
:100f3400b41c800044408800b41c80006402620039
:100f4400e00f5200010032009643a900b41c800057
:100f540061026200e00f52000e0032009603a90005
:100f6400351c800004802000050a7800451c8000a0
:100f74000480200015029800551c80000480200085
:100f840025029800651c800004802000350298002a
:100f94008ee3a9000080fa004f02be000040060064
:100fa4000000fa00f40f2000441588000002eb0052
:100fb400c41688000002eb00e416880040062000f6
:100fc400e500070080c2b30014000700a000200061
:100fd400e100070060c0b30010000700a00020007b
:100fe400dd000700f0c0b3000c000700a0002000e3
:100ff400d900070010c0b30008000700a0002000bb
:10100400d500070020c0b30004000700a0002000a2
:10101400d10007000080fa00000006000200fa0078
:10102400004f7800dc02a900dc22a9009e4278006f
:101034000582fb004422de00044278000482fb00a7
:101044006f02620054168800dc42a800dc42a9004a
:101054009e4278000582fb006f02620054168800ed
:10106400dc42a800dc42a90010002000ba000700fe
:101074000080fa00000006000200fa00004f780029
:10108400dc02a800dc22a9009e4278000582fb0055
:101094004422de00044278000482fb006f026200f6
:1010a40054168800dc42a800dc42a9009e42780065
:1010b4000582fb006f02620054168800dc42a8001f
:1010c400dc42a90010002000a30007000080fa0001
:1010d400000006000000fa00841c80000480a100c7
:1010e4000490a10004a0a000841c880091e3a8003f
:1010f40091a3a9009163a900941c80000460a1003d
:101104000470a100941c8800951c800004fc2f002e
:10111400048262000430a000941c880094e3a800b8
:10112400a41c80000400a0000410a1000420a1005d
:10113400a41c8800a41c80000430a1000440a0006a
:101144000450a000a41c8800a41c80000480a000fb
:101154000490a10004a0a000a41c880094c3a800cb
:101164000002eb00b41c88008760a900f40f200083
:10117400c41c88000405800004c0a00004d0a000a2
:1011840004e0a000040588008f60a8008e43a90035
:10119400d4ff21008419880084aa20000418880040
:1011a400741b80000400a1000410a000741b8800bc
:1011b400840a2500041b8800241b80000430a1003d
:1011c4000440a1000450a1000460a000241b880076
:1011d4002485200014027800341b88002485200014
:1011e40014029000441b88002485200024029000ef
:1011f400541b88002485200034029000641b88005e
:10120400841c80000480a1000490a10004a0a1001b
:10121400841c880000000000851c8000040e20004f
:1012240004826200e00f5200fbff3a000080fa00e3
:10123400000006000000fa0081e0a8008c00a9006c
:1012440083e0a9008200a800a40480000400a10097
:101254000410a0000420a000a40488008400a900b5
:101264008c00a8000080fa00000006000000fa00cc
:10127400451580008403200005027200441588008f
:10128400140980000480a1000490a10004a0a1001e
:101294001409880023e1a90023a1a90022e1a900df
:1012a40022c1a9002241a8002221a9002501a800e9
:1012b40024e1a800240980000440a1000450a000f7
:1012c4000460a1002409880004ee22003409880087
:1012d400140980000480a0000490a00004a0a000d1
:1012e400140988000080fa00000006000000fa00db
:1012f400c1e1a900040e80000420a1000430a10073
:10130400040e8800040e80000440a1000450a100d3
:101314000460a1000470a100040e8800040e800083
:101324000400a1000410a100040e8800c901a80053
:10133400c921a800c801a800c821a8000002eb0028
:10134400140e880024072000240e8800c1e1a800a0
:101354000080fa00000006000600fa00200798004a
:101364002e029000040f78000a0037009410200029
:1013740014079800030037001e0290000402e900dd
:10138400140798001e029000e00f5200faff3a0082
:101394001e0fe9001e027800e00f5200f3ff3a002e
:1013a4000080fa00000006001000fa00000f780028
:1013b40012079800230798003407980045079800ff
:1013c4005607980067079800710798001e02780076
:1013d4001e039000ae039000068abe001e02780031
:1013e4003e039000ce039000260298003702980036
:1013f4001e0278005e039000ee03900046029800ff
:10140400570298001e0278003ebb9700cebb97009f
:1014140066029800770298001e027800fe0390008e
:10142400070a98001e0278001ebb9700aebb970007
:10143400360a9800470a98001e0278007eb3970087
:101444008ebb9700760a9800071298001e02780057
:101454005eb39700eeb397003612980047129800d7
:101464001e0278003eb39700ceb39700161a980078
:10147400271a98000080fa00000006000200fa0013
:10148400000f78001e027800e40a9000540a9000cd
:101494001e037800740b9800051398001e02780050
:1014a400a4129000141290001e03780034139800c4
:1014b400451398001e027800841a9000741290005c
:1014c4001e037800141b9800251b98000080fa0066
:1014d400000006001200fa00889fbe008a9fbe002a
:1014e4008c9fbe002007980032079800430798009d
:1014f40054079800650798002e0290005e03900040
:10150400ee039000560a9800670a98005e01900066
:10151400ee0190003e009000ce00900086fb070094
:101524000002be002e03900074139800051b98005f
:101534002e02900064039000f40390002e029000a9
:10154400c4129000341290000401be000600be00d4
:101554008dfc07000002be000404be002e029000b1
:10156400040a9000050020000400be0031fc0700be
:101574000002be000401be000800be00ccfb070050
:101584000002be000404be002e029000240390005a
:10159400b40390002e029000f402900064029000c4
:1015a4000401be000600be0077fc07000002be0076
:1015b4000405be002e029000540b9000e40b900032
:1015c4002e02900084129000740a90000401be0060
:1015d4000600be0058fb07000002be000401be0066
:1015e4000a00be0068fc07000002be000405be003d
:1015f4002e02900064069000f40690002e029000e3
:1016040064039000f403900076079800070f980095
:101614002e029000040a9000050020000400be0081
:1016240004fc07000002be000401be007e0090001e
:101634008e0890009efb07000002be000401be005d
:101644000c00be003dfb07000002be000401be000a
:101654000a00be0096fb07000002be000401be00a3
:101664000800be0035fb07000002be002e039000f8
:1016740014139800251398002e0290001403be0042
:101684002e029000841a9000741290000401be008f
:101694000600be003cfc07000002be002e039000c2
:1016a40054139800651398002e029000e4129000e1
:1016b400541290003e019000ce0190000400be0040
:1016c4007bfb07000002be000401be000400be0054
:1016d4001afb07000002be0002002000632e240053
:1016e4000400be0028fc07000002be000200200027
:1016f40003f823000400be000ffb07000002be0035
:10170400048fbe0018c0b30002002000533624002a
:101714001e00be00aafb070000027800e00f520082
:1017240001003d000044eb00e04f5400090032008a
:10173400540e2000744288000002eb0084428800aa
:1017440014c0b3008442780087842000854b78005d
:101754003700370018c0b3000200200053362c00b5
:101764001e00be0094fb070000027800e00f520048
:10177400010034000044eb00e04f54000900320043
:101784000002eb0074428800540e2000844288005a
:101794000042eb008443780086842000074b7800e5
:1017a4002300370018c0b3006011b8001e00be004b
:1017b40081fb070000027800e00f520001003500b1
:1017c4000044eb00e04f54000e0032000002eb0036
:1017d400744288001e02be0005f0a2000400be0090
:1017e40079fb07000002be000402780084428800ee
:1017f4000042eb000443780085842000864a780088
:101804000b0037001e00be006ffb07000002be0085
:1018140004027800744288000002eb0084428800cd
:1018240014c0b3008442780087842000854b78007c
:10183400e4842000040078004f06be004f05be007b
:0c1844004f04be000080fa000000060007
:020000040000fa
:101850005208000008000000020000005555aa00d0
:10186000aaaaaa00aaaa00000008000052000000cc
:08187000000000000000000070
:020000040000fa
:0200000401f009
:04000000fa3d0000c5
:020000040000fa
:0200000401f009
:04000400ff7f00007a
:020000040000fa
:0200000401f009
:04000800ffff0000f6
:020000040000fa
:0200000401f009
:04001400ffff0000ea
:020000040000fa
:0200000401f009
:04001800ffff0000e6
:00000001FF
